S00B00004932432E737265635B
S11300000C942A000C9434000C9434000C943400A6
S11300100C9434000C9434000C9434000C9434008C
S11300200C9434000C9434000C9434000C9434007C
S11300300C9434000C9434000C9434000C9434006C
S11300400C9434000C9434000C9434000C9434005C
S11300500C94340011241FBECFE5D8E0DEBFCDBF21
S11300600E944C000C9456000C94000084EA86BF55
S113007006B607FEFDCF089584E986BF089583B9C7
S113008084E886BF06B607FEFDCF089511B888E45C
S113009080B984E086BF08950E9446000E9436001D
S11300A081E60E943F000E943C00FDCFF894FFCF00
S9030000FC
