:100000000C942A000C9434000C9434000C943400AA
:100010000C9434000C9434000C9434000C94340090
:100020000C9434000C9434000C9434000C94340080
:100030000C9434000C9434000C9434000C94340070
:100040000C9434000C9434000C9434000C94340060
:100050000C94340011241FBECFE5D8E0DEBFCDBF25
:100060000E9436000C9452000C94000087B38A6AF8
:1000700087BB88B38A6A88BB2FEF89E698E1215055
:1000800080409040E1F700C0000088B3857588BBD0
:100090002FEF89E698E1215080409040E1F700C0C1
:0800A0000000E7CFF894FFCF48
:00000001FF
