S00F0000554152545F52582E73726563D0
S11300000C942A000C9434000C9434000C943400A6
S11300100C9434000C9434000C9434000C9434008C
S11300200C9434000C9434000C9434000C9434007C
S11300300C9434000C9434000C9434000C9434006C
S11300400C9434000C9434000C9434000C9434005C
S11300500C94340011241FBECFE5D8E0DEBFCDBF21
S11300600E943D000C944E000C94000090BD89B990
S113007088E18AB98EE880BD089580E895E20E94FF
S113008036005F9BFECF8CB15D9BFECF8CB98FE3B6
S11300909CE90197F1F700C00000F3CFF894FFCF7B
S9030000FC
