S00B00004C43442E7372656346
S11300000C9434000C9449000C9449000C9449005D
S11300100C9449000C9449000C9449000C94490038
S11300200C9449000C9449000C9449000C94490028
S11300300C9449000C9449000C9449000C94490018
S11300400C9449000C9449000C9449000C94490008
S11300500C9449000C9449000C9449000C944900F8
S11300600C9449000C94490011241FBECFEFD8E032
S1130070DEBFCDBF11E0A0E0B1E0E2EBF1E002C0F1
S113008005900D92AE30B107D9F70E94AD000C94E3
S1130090D7000C94000085B98BB18E7F8BB98BB1DE
S11300A08D7F8BB98BB184608BB985E08A95F1F72C
S11300B000008BB18B7F8BB98FE39FE10197F1F740
S11300C000C00000089588E30E944B008FE99FE080
S11300D00197F1F700C0000081E00E944B008FE916
S11300E09FE00197F1F700C000008EE00E944B00F2
S11300F08FE99FE00197F1F700C0000080E80E94BB
S11301004B008FE99FE00197F1F700C000000895CC
S113011085B98BB181608BB98BB18D7F8BB98BB174
S113012084608BB985E08A95F1F700008BB18B7FF1
S11301308BB98FE39FE10197F1F700C000000895A8
S1130140CF93DF93EC018881882321F00E948800FB
S11301502196F9CFDF91CF9108958FEF84B98AB1B9
S113016087608AB90E9463002FEF89E698E12150E5
S113017080409040E1F700C0000080E091E00E94E0
S1130180A0002FEF83ED90E3215080409040E1F7F1
S113019000C0000081E00E944B002FEF83ED90E34C
S11301A0215080409040E1F700C00000E6CFF89471
S10501B0FFCF7B
S11101B248656C6C6F2C20576F726C642100D2
S9030000FC
