S00B00005350492E737265632D
S11300000C942A000C9434000C9434000C943400A6
S11300100C9434000C9434000C9434000C9434008C
S11300200C9434000C9434000C9434000C9434007C
S11300300C9434000C9434000C9434000C9434006C
S11300400C9434000C9434000C9434000C9434005C
S11300500C94340011241FBECFE5D8E0DEBFCDBF21
S11300600E9436000C9440000C94000087B3806A10
S113007087BB81E58DB98CEB8FB9779BFECFFBCF26
S1070080F894FFCF1E
S9030000FC
