:100000000C942A000C9434000C9434000C943400AA
:100010000C9434000C9434000C9434000C94340090
:100020000C9434000C9434000C9434000C94340080
:100030000C9434000C9434000C9434000C94340070
:100040000C9434000C9434000C9434000C94340060
:100050000C94340011241FBECFE5D8E0DEBFCDBF25
:100060000E943D000C9448000C94000090BD89B99A
:1000700088E08AB98EE880BD089580E895E20E9404
:10008000360081E48CB95D9BFECF8AE58CB9FBCF4D
:04009000F894FFCF12
:00000001FF
